:1000000025C0FCC2FBC2DCC2F9C2F8C2F7C2F6C20C
:10001000F5C2F4C2F3C2F2C2F1C2F0C2EFC2EEC244
:10002000EDC2ECC2EBC2EAC268C1E8C2E7C2E6C2F6
:10003000E5C2E4C23F003F240006063F243F48805B
:100040003F483F5A00062A3F5A3F5C8011241FBE9A
:10005000CFEFCDBFDFE3DEBFE4E3F0E040E017C069
:10006000B591A59135912591059107FD0CC095910C
:100070008591EF01F92FE82F05900D92A217B30794
:10008000D9F7FE0104C01D92A217B307E1F7EC34C3
:0C009000F40731F7C9D187C2F894FFCF04
:10009C00CF93DF93E4E2FFE38081877F80838481C9
:1000AC009581019731F4E0E1F8E0848184608483E8
:1000BC0005C0E0E1F8E084818B7F8483E4E2FFE318
:1000CC0084819581019784839583892BA9F0DF0125
:1000DC00C281D381E0E1F8E08085888312968D910E
:1000EC009C911397019612968D939C9313978481F0
:1000FC008260848384E024C0A4E2BFE31296ED9175
:10010C00FC91139780911808808312968D919C9185
:10011C001397019612968D939C9313978C918460F0
:10012C008C931C96ED91FC911D9758968D919C91FA
:10013C00599709958250823010F41AD201C0B5D16A
:06014C00DF91CF91089540
:1001520032D10498E4E1F4E08081877F80830598BE
:10016200E5E1F4E08081877F80830E980698E6E1DE
:10017200F4E08081877F808380818F778083808194
:10018200887F826080830798E7E1F4E08081877F3F
:1001920080832498E4E3F4E08081877F80832D9834
:1001A200259A4898409A4998419A4A98429A4B9877
:1001B200439ACED1FED1B2D1EED11BD20DD217D2FB
:0601C20016D10DD20895D4
:1001C8008091150884FF16C0A4E2BFE35296ED9112
:1001D800FC9153975E968D919C915F97099582301B
:1001E80019F0833019F004C07FD1089589D108959A
:1001F8006ED10895A4E2BFE38C9184608C931C9621
:10020800ED91FC911D9758968D919C915997099560
:10021800833031F0843031F0823031F465D1089583
:0C0228006FD1089503D0089552D10895BD
:100234008091150884FF16C0A4E2BFE35296ED91A5
:10024400FC9153975E968D919C915F9709958230AE
:1002540019F0833019F004C049D1089553D1089599
:1002640038D10895E4E2FFE38081877F8083A2810F
:10027400B381CD010196828393838C918093180876
:1002840084819581019784839583892B11F485E07A
:06029400089583E00895C7
:10029A00CF93DF93E0E1F8E08581806C85838091DC
:1002AA00243F83FF07C08091150884FF03C08FE0B5
:1002BA0080932E3F8091150883FF03C080E18093CD
:1002CA002E3F8091150882FF03C081E180932E3F63
:1002DA00C4E2DFE3EA85F0E0EE0FFF1FE050F14CE5
:1002EA000190F081E02D09958A87DF91CF910895D9
:1002FA001F920F920FB60F9211242F933F934F9391
:10030A005F936F937F938F939F93AF93BF93EF9373
:10031A00FF93BEDFFF91EF91BF91AF919F918F91B4
:10032A007F916F915F914F913F912F910F900FBEE7
:06033A000F901F901895C2
:10034000E0E1F8E0858188608583A4E2BFE382E094
:100350001B968C931B971E96ED91FC911F975A96B6
:100360008D919C915B970995823019F0833019F03B
:0E03700004C0BED00895C8D008958DD0089561
:10037E00A4E2BFE38C91877F8C9382E01B968C93D3
:10038E001B975096ED91FC9151975C968D919C9197
:10039E005D970995823019F0833019F004C0A1D011
:0A03AE000895ABD0089590D0089593
:1003B800E0E1F4E0808188608193E83184E0F80727
:1003C800C9F7E0E3F4E0808188608193E83384E052
:1003D800F807C9F7E0E5F4E0808188608193E835A3
:0803E80084E0F807C9F708954D
:1003F0002898209AE0E3F4E08081877F80838081E1
:100400008F7780838081887F80832998219AE1E398
:10041000F4E08081877F808380818F7780838081F3
:08042000887F8083B2D00895AB
:10042800E7D0489A2AEA80EA91E02150804090403B
:10043800E1F700C048982AEA80EA91E0215080401C
:080448009040E1F700C0EDCF88
:10045000E0E0F8E087E594E08087918780EC868390
:10046000E091583FF091593F88E49FE38083918366
:0404700080E008958B
:10047400E0E1F8E0848188608483858181608583FC
:10048400E4E2FFE380818E7F808382E083878EE0D5
:020494000895C9
:10049600E0E1F8E0848188608483858181608583DA
:1004A600E4E2FFE380818E7F808313868EE00895E9
:1004B600E0E1F8E0848184608483848183608483BE
:1004C600E4E2FFE380818E7F8083138680E00895D7
:1004D600E0E1F8E0848183608483E4E2FFE38081E5
:0A04E6008E7F8083138680E0089566
:1004F000E4E2FFE38081886080838181880F8160EE
:080500008093170884E00895C0
:10050800E4E2FFE38081886080838181880F8093A3
:06051800170883E00895BE
:10051E002398E3E3F4E08081877F80832A98229AF0
:04052E0090DF0895BD
:10053200E4E2FFE380818E7F8083138680E008956A
:10054200E0E0F8E0948195FFFDCF809302080895E2
:0E05520041E068ED8CE790E037D080E008953E
:0E056000E0E1F8E084818B7F848384E00895DD
:0E056E00E0E1F8E084818B7F848383E00895D0
:0E057C00E0E1F8E084818460848388E00895E3
:0E058A00E0E1F8E088E0868381EC8383089549
:0E05980044E268ED80E091E014D080E0089528
:0E05A600EC012BD029D0CE0129D0CE0128D0D7
:0C05B400E0E4F1E081818111FDCF0895A9
:0A05C0008F9380EF83B98F91189597
:0805CA00FC0164BF40830895A9
:0805D200B7DF80E090E008951E
:0605DA00789480E0089512
:0405E00080E008951A
:0405E40085DF089512
:0405E80083DF089510
:0405EC008DDF089502
:0405F00080E008950A
:0405F40080E0089506
:0405F800ACDD0895D9
:0205FC0001CD2F
:0205FE0008955E
:0206000008955B
:02060200089559
:0206040049DDCE
:100606009902780284021A014E00E400F402F6020E
:10061600F2026B02B002B7025B02BE024B02BF01DE
:04062600A0013A02F3
:10062A00030000000000000000000000E9020000D2
:02063A005A3F25
:00000001FF
